S00C0000414D49542E73726563ED
S11300000C942A000C9495020C94BC020C94E30208
S11300100C9447000C9447000C9447000C94470040
S11300200C9447000C9447000C9431030C940A037D
S11300300C9447000C9447000C9447000C94470020
S11300400C9447000C9447000C9447000C94470010
S11300500C94470011241FBECFE5D8E0DEBFCDBF0E
S113006010E0A0E6B0E0E4EBF6E002C005900D92EB
S1130070A036B107D9F720E0A0E6B0E001C01D9298
S1130080AA36B207E1F70E9449000C9458030C9475
S1130090000040E060E080E00E94810140E061E017
S11300A080E00E94810160E080E00E94670281306C
S11300B049F461E080E00E946702813019F40E94F3
S11300C08D00F1CF60E080E00E946702813049F446
S11300D061E080E00E946702811103C00E94CA00AF
S11300E0E2CF60E080E00E946702811108C061E015
S11300F00E946702813019F40E940701D4CF60E0A6
S113010080E00E9467028111CECF61E00E94670205
S11301108111C9CF0E944401C6CF41E064E083E06D
S11301200E94810141E065E083E00E94810141E099
S113013060E082E00E94810141E061E082E00E948F
S1130140810141E062E082E00E94810141E063E0DC
S113015082E00E94810141E064E083E00E94F401B6
S113016041E065E083E00E94F40141E060E082E068
S11301700E94F40140E061E082E00E94F40141E069
S113018062E082E00E94F40140E063E082E00E94C9
S1130190F401089541E064E083E00E94810141E0BC
S11301A065E083E00E94810141E060E082E00E941A
S11301B0810141E061E082E00E94810141E062E06E
S11301C082E00E94810141E063E082E00E948101BB
S11301D041E064E083E00E94F40141E065E083E0F3
S11301E00E94F40141E060E082E00E94F40140E0FA
S11301F061E082E00E94F40140E062E082E00E945B
S1130200F40140E063E082E00E94F401089541E0DB
S113021064E083E00E94810141E065E083E00E94A4
S1130220810141E060E082E00E94810141E061E0FF
S113023082E00E94810141E062E082E00E9481014B
S113024041E063E082E00E94810141E064E083E0F8
S11302500E94F40141E065E083E00E94F40140E083
S113026060E082E00E94F40140E061E082E00E94EC
S1130270F40141E062E082E00E94F40140E063E0C6
S113028082E00E94F401089541E064E083E00E946A
S1130290810141E065E083E00E94810141E060E08A
S11302A082E00E94810141E061E082E00E948101DC
S11302B041E062E082E00E94810141E063E082E08B
S11302C00E94810140E064E083E00E94F40140E088
S11302D065E083E00E94F40140E060E082E00E9477
S11302E0F40140E061E082E00E94F40140E062E059
S11302F082E00E94F40140E063E082E00E94F401A5
S11303000895423008F06FC04130A1F5813089F082
S113031028F08230C9F0833011F108952AB381E0C6
S113032090E002C0880F991F6A95E2F7822B8ABB7E
S1130330089527B381E090E002C0880F991F6A9561
S1130340E2F7822B87BB089524B381E090E002C0DA
S1130350880F991F6A95E2F7822B84BB089521B315
S113036081E090E002C0880F991F6A95E2F7822B22
S113037081BB0895411137C0813091F028F082305B
S1130380D9F0833029F108952AB381E090E002C0C6
S1130390880F991F6A95E2F7809582238ABB089596
S11303A027B381E090E002C0880F991F6A95E2F7B5
S11303B08095822387BB089524B381E090E002C036
S11303C0880F991F6A95E2F78095822384BB08956C
S11303D021B381E090E002C0880F991F6A95E2F78B
S11303E08095822381BB0895423008F06FC041306C
S11303F0A1F5813089F028F08230C9F0833011F101
S113040008952BB381E090E002C0880F991F6A958C
S1130410E2F7822B8BBB089528B381E090E002C001
S1130420880F991F6A95E2F7822B88BB089525B33C
S113043081E090E002C0880F991F6A95E2F7822B51
S113044085BB089522B381E090E002C0880F991F14
S11304506A95E2F7822B82BB0895411137C081303F
S113046091F028F08230D9F0833029F108952BB32C
S113047081E090E002C0880F991F6A95E2F78095A9
S113048082238BBB089528B381E090E002C0880FDB
S1130490991F6A95E2F78095822388BB089525B356
S11304A081E090E002C0880F991F6A95E2F7809579
S11304B0822385BB089522B381E090E002C0880FB7
S11304C0991F6A95E2F78095822382BB0895813053
S11304D079F028F08230A9F08330E1F024C089B3A8
S11304E090E002C0959587956A95E2F7817008952A
S11304F086B390E002C0959587956A95E2F781707E
S1130500089583B390E002C0959587956A95E2F7C4
S11305108170089580B390E002C0959587956A959F
S1130520E2F78170089580E008951F920F920FB64C
S11305300F9211242F933F934F935F936F937F9365
S11305408F939F93AF93BF93EF93FF93E0916000DA
S1130550F09161000995FF91EF91BF91AF919F9147
S11305608F917F916F915F914F913F912F910F9058
S11305700FBE0F901F9018951F920F920FB60F92F7
S113058011242F933F934F935F936F937F938F9394
S11305909F93AF93BF93EF93FF93E0916200F09129
S11305A063000995FF91EF91BF91AF919F918F9156
S11305B07F916F915F914F913F912F910F900FBE5B
S11305C00F901F9018951F920F920FB60F9211243F
S11305D02F933F934F935F936F937F938F939F9347
S11305E0AF93BF93EF93FF93E0916400F0916500A4
S11305F00995FF91EF91BF91AF919F918F917F9159
S11306006F915F914F913F912F910F900FBE0F907B
S11306101F9018951F920F920FB60F9211242F93CB
S11306203F934F935F936F937F938F939F93AF9376
S1130630BF93EF93FF93E0916600F09167000995F3
S1130640FF91EF91BF91AF919F918F917F916F91A6
S11306505F914F913F912F910F900FBE0F901F907C
S113066018951F920F920FB60F9211242F933F9358
S11306704F935F936F937F938F939F93AF93BF93A6
S1130680EF93FF93E0916800F09169000995FF9161
S1130690EF91BF91AF919F918F917F916F915F91F6
S11306A04F913F912F910F900FBE0F901F9018956F
S10706B0F894FFCFE8
S9030000FC
